{
  "_format": "hh-sol-artifact-1",
  "contractName": "CampaignFactory",
  "sourceName": "contracts/CampaignFactory.sol",
  "abi": [
    {
      "inputs": [
        {
          "internalType": "uint256",
          "name": "_minimum",
          "type": "uint256"
        },
        {
          "internalType": "string",
          "name": "_name",
          "type": "string"
        },
        {
          "internalType": "string",
          "name": "_symbol",
          "type": "string"
        }
      ],
      "name": "createCampaign",
      "outputs": [
        {
          "internalType": "bool",
          "name": "",
          "type": "bool"
        }
      ],
      "stateMutability": "nonpayable",
      "type": "function"
    },
    {
      "inputs": [],
      "name": "getDeployedCampaigns",
      "outputs": [
        {
          "internalType": "address[]",
          "name": "",
          "type": "address[]"
        }
      ],
      "stateMutability": "view",
      "type": "function"
    }
  ],
  "bytecode": "0x608060405234801561001057600080fd5b50612d67806100206000396000f3fe60806040523480156200001157600080fd5b50600436106200003a5760003560e01c80634acb9d4f146200003f578063fad4dee31462000061575b600080fd5b6200004962000097565b604051620000589190620002ea565b60405180910390f35b6200007f6004803603810190620000799190620004bf565b62000127565b6040516200008e919062000576565b60405180910390f35b606060008054806020026020016040519081016040528092919081815260200182805480156200011d57602002820191906000526020600020905b8160009054906101000a900473ffffffffffffffffffffffffffffffffffffffff1673ffffffffffffffffffffffffffffffffffffffff1681526020019060010190808311620000d2575b5050505050905090565b600080848484336040516200013c90620001da565b6200014b949392919062000648565b604051809103906000f08015801562000168573d6000803e3d6000fd5b5090506000819080600181540180825580915050600190039060005260206000200160009091909190916101000a81548173ffffffffffffffffffffffffffffffffffffffff021916908373ffffffffffffffffffffffffffffffffffffffff16021790555060019150509392505050565b61268e80620006a483390190565b600081519050919050565b600082825260208201905092915050565b6000819050602082019050919050565b600073ffffffffffffffffffffffffffffffffffffffff82169050919050565b6000620002418262000214565b9050919050565b620002538162000234565b82525050565b600062000267838362000248565b60208301905092915050565b6000602082019050919050565b60006200028d82620001e8565b620002998185620001f3565b9350620002a68362000204565b8060005b83811015620002dd578151620002c1888262000259565b9750620002ce8362000273565b925050600181019050620002aa565b5085935050505092915050565b6000602082019050818103600083015262000306818462000280565b905092915050565b6000604051905090565b600080fd5b600080fd5b6000819050919050565b620003378162000322565b81146200034357600080fd5b50565b60008135905062000357816200032c565b92915050565b600080fd5b600080fd5b6000601f19601f8301169050919050565b7f4e487b7100000000000000000000000000000000000000000000000000000000600052604160045260246000fd5b620003b28262000367565b810181811067ffffffffffffffff82111715620003d457620003d362000378565b5b80604052505050565b6000620003e96200030e565b9050620003f78282620003a7565b919050565b600067ffffffffffffffff8211156200041a576200041962000378565b5b620004258262000367565b9050602081019050919050565b82818337600083830152505050565b6000620004586200045284620003fc565b620003dd565b90508281526020810184848401111562000477576200047662000362565b5b6200048484828562000432565b509392505050565b600082601f830112620004a457620004a36200035d565b5b8135620004b684826020860162000441565b91505092915050565b600080600060608486031215620004db57620004da62000318565b5b6000620004eb8682870162000346565b935050602084013567ffffffffffffffff8111156200050f576200050e6200031d565b5b6200051d868287016200048c565b925050604084013567ffffffffffffffff8111156200054157620005406200031d565b5b6200054f868287016200048c565b9150509250925092565b60008115159050919050565b620005708162000559565b82525050565b60006020820190506200058d600083018462000565565b92915050565b6200059e8162000322565b82525050565b600081519050919050565b600082825260208201905092915050565b60005b83811015620005e0578082015181840152602081019050620005c3565b83811115620005f0576000848401525b50505050565b60006200060382620005a4565b6200060f8185620005af565b935062000621818560208601620005c0565b6200062c8162000367565b840191505092915050565b620006428162000234565b82525050565b60006080820190506200065f600083018762000593565b8181036020830152620006738186620005f6565b90508181036040830152620006898185620005f6565b90506200069a606083018462000637565b9594505050505056fe60806040523480156200001157600080fd5b506040516200268e3803806200268e8339818101604052810190620000379190620003ac565b8282816003908051906020019062000051929190620000bf565b5080600490805190602001906200006a929190620000bf565b5050508360058190555080600760006101000a81548173ffffffffffffffffffffffffffffffffffffffff021916908373ffffffffffffffffffffffffffffffffffffffff16021790555050505050620004c1565b828054620000cd906200048b565b90600052602060002090601f016020900481019282620000f157600085556200013d565b82601f106200010c57805160ff19168380011785556200013d565b828001600101855582156200013d579182015b828111156200013c5782518255916020019190600101906200011f565b5b5090506200014c919062000150565b5090565b5b808211156200016b57600081600090555060010162000151565b5090565b6000604051905090565b600080fd5b600080fd5b6000819050919050565b620001988162000183565b8114620001a457600080fd5b50565b600081519050620001b8816200018d565b92915050565b600080fd5b600080fd5b6000601f19601f8301169050919050565b7f4e487b7100000000000000000000000000000000000000000000000000000000600052604160045260246000fd5b6200021382620001c8565b810181811067ffffffffffffffff82111715620002355762000234620001d9565b5b80604052505050565b60006200024a6200016f565b905062000258828262000208565b919050565b600067ffffffffffffffff8211156200027b576200027a620001d9565b5b6200028682620001c8565b9050602081019050919050565b60005b83811015620002b357808201518184015260208101905062000296565b83811115620002c3576000848401525b50505050565b6000620002e0620002da846200025d565b6200023e565b905082815260208101848484011115620002ff57620002fe620001c3565b5b6200030c84828562000293565b509392505050565b600082601f8301126200032c576200032b620001be565b5b81516200033e848260208601620002c9565b91505092915050565b600073ffffffffffffffffffffffffffffffffffffffff82169050919050565b6000620003748262000347565b9050919050565b620003868162000367565b81146200039257600080fd5b50565b600081519050620003a6816200037b565b92915050565b60008060008060808587031215620003c957620003c862000179565b5b6000620003d987828801620001a7565b945050602085015167ffffffffffffffff811115620003fd57620003fc6200017e565b5b6200040b8782880162000314565b935050604085015167ffffffffffffffff8111156200042f576200042e6200017e565b5b6200043d8782880162000314565b9250506060620004508782880162000395565b91505092959194509250565b7f4e487b7100000000000000000000000000000000000000000000000000000000600052602260045260246000fd5b60006002820490506001821680620004a457607f821691505b60208210811415620004bb57620004ba6200045c565b5b50919050565b6121bd80620004d16000396000f3fe6080604052600436106100f35760003560e01c806370a082311161008a578063a9059cbb11610059578063a9059cbb14610352578063d7bb99ba1461038f578063d7d1bbdb146103ad578063dd62ed3e146103d6576100f3565b806370a08231146102845780638a9cfd55146102c157806395d89b41146102ea578063a457c2d714610315576100f3565b806323b872dd116100c657806323b872dd146101b4578063313ce567146101f15780633410452a1461021c5780633950935114610247576100f3565b806303441006146100f857806306fdde0314610121578063095ea7b31461014c57806318160ddd14610189575b600080fd5b34801561010457600080fd5b5061011f600480360381019061011a9190611448565b610413565b005b34801561012d57600080fd5b50610136610605565b604051610143919061150e565b60405180910390f35b34801561015857600080fd5b50610173600480360381019061016e919061158e565b610697565b60405161018091906115e9565b60405180910390f35b34801561019557600080fd5b5061019e6106ba565b6040516101ab9190611613565b60405180910390f35b3480156101c057600080fd5b506101db60048036038101906101d6919061162e565b6106c4565b6040516101e891906115e9565b60405180910390f35b3480156101fd57600080fd5b506102066106f3565b604051610213919061169d565b60405180910390f35b34801561022857600080fd5b506102316106fc565b60405161023e9190611613565b60405180910390f35b34801561025357600080fd5b5061026e6004803603810190610269919061158e565b610709565b60405161027b91906115e9565b60405180910390f35b34801561029057600080fd5b506102ab60048036038101906102a691906116b8565b610740565b6040516102b89190611613565b60405180910390f35b3480156102cd57600080fd5b506102e860048036038101906102e3919061181a565b610788565b005b3480156102f657600080fd5b506102ff610954565b60405161030c919061150e565b60405180910390f35b34801561032157600080fd5b5061033c6004803603810190610337919061158e565b6109e6565b60405161034991906115e9565b60405180910390f35b34801561035e57600080fd5b506103796004803603810190610374919061158e565b610a5d565b60405161038691906115e9565b60405180910390f35b610397610a80565b6040516103a491906115e9565b60405180910390f35b3480156103b957600080fd5b506103d460048036038101906103cf9190611448565b610af4565b005b3480156103e257600080fd5b506103fd60048036038101906103f89190611889565b610c8a565b60405161040a9190611613565b60405180910390f35b3373ffffffffffffffffffffffffffffffffffffffff16600760009054906101000a900473ffffffffffffffffffffffffffffffffffffffff1673ffffffffffffffffffffffffffffffffffffffff16146104a3576040517f08c379a000000000000000000000000000000000000000000000000000000000815260040161049a90611915565b60405180910390fd5b6000600882815481106104b9576104b8611935565b5b906000526020600020906004020190508060020160149054906101000a900460ff161561051b576040517f08c379a0000000000000000000000000000000000000000000000000000000008152600401610512906119b0565b60405180910390fd5b600260065461052a9190611a2e565b81600301541161056f576040517f08c379a000000000000000000000000000000000000000000000000000000000815260040161056690611aab565b60405180910390fd5b60008160020160009054906101000a900473ffffffffffffffffffffffffffffffffffffffff1690508073ffffffffffffffffffffffffffffffffffffffff166108fc83600101549081150290604051600060405180830381858888f193505050501580156105e2573d6000803e3d6000fd5b5060018260020160146101000a81548160ff021916908315150217905550505050565b60606003805461061490611afa565b80601f016020809104026020016040519081016040528092919081815260200182805461064090611afa565b801561068d5780601f106106625761010080835404028352916020019161068d565b820191906000526020600020905b81548152906001019060200180831161067057829003601f168201915b5050505050905090565b6000806106a2610d11565b90506106af818585610d19565b600191505092915050565b6000600254905090565b6000806106cf610d11565b90506106dc858285610ee4565b6106e7858585610f70565b60019150509392505050565b60006012905090565b6000600880549050905090565b600080610714610d11565b90506107358185856107268589610c8a565b6107309190611b2c565b610d19565b600191505092915050565b60008060008373ffffffffffffffffffffffffffffffffffffffff1673ffffffffffffffffffffffffffffffffffffffff168152602001908152602001600020549050919050565b3373ffffffffffffffffffffffffffffffffffffffff16600760009054906101000a900473ffffffffffffffffffffffffffffffffffffffff1673ffffffffffffffffffffffffffffffffffffffff1614610818576040517f08c379a000000000000000000000000000000000000000000000000000000000815260040161080f90611915565b60405180910390fd5b60006040518060a001604052808581526020018481526020018373ffffffffffffffffffffffffffffffffffffffff16815260200160001515815260200160008152509050600881908060018154018082558091505060019003906000526020600020906004020160009091909190915060008201518160000190805190602001906108a592919061135b565b506020820151816001015560408201518160020160006101000a81548173ffffffffffffffffffffffffffffffffffffffff021916908373ffffffffffffffffffffffffffffffffffffffff16021790555060608201518160020160146101000a81548160ff021916908315150217905550608082015181600301555050600060016008805490506109379190611b82565b905060096000828152602001908152602001600020505050505050565b60606004805461096390611afa565b80601f016020809104026020016040519081016040528092919081815260200182805461098f90611afa565b80156109dc5780601f106109b1576101008083540402835291602001916109dc565b820191906000526020600020905b8154815290600101906020018083116109bf57829003601f168201915b5050505050905090565b6000806109f1610d11565b905060006109ff8286610c8a565b905083811015610a44576040517f08c379a0000000000000000000000000000000000000000000000000000000008152600401610a3b90611c28565b60405180910390fd5b610a518286868403610d19565b60019250505092915050565b600080610a68610d11565b9050610a75818585610f70565b600191505092915050565b6000803490506005548111610aca576040517f08c379a0000000000000000000000000000000000000000000000000000000008152600401610ac190611c94565b60405180910390fd5b610ad433826111f1565b60066000815480929190610ae790611cb4565b9190505550600191505090565b600060088281548110610b0a57610b09611935565b5b906000526020600020906004020190506000610b2533610740565b11610b65576040517f08c379a0000000000000000000000000000000000000000000000000000000008152600401610b5c90611d49565b60405180910390fd5b6009600083815260200190815260200160002060003373ffffffffffffffffffffffffffffffffffffffff1673ffffffffffffffffffffffffffffffffffffffff16815260200190815260200160002060009054906101000a900460ff1615610c03576040517f08c379a0000000000000000000000000000000000000000000000000000000008152600401610bfa90611db5565b60405180910390fd5b60016009600084815260200190815260200160002060003373ffffffffffffffffffffffffffffffffffffffff1673ffffffffffffffffffffffffffffffffffffffff16815260200190815260200160002060006101000a81548160ff021916908315150217905550806003016000815480929190610c8190611cb4565b91905055505050565b6000600160008473ffffffffffffffffffffffffffffffffffffffff1673ffffffffffffffffffffffffffffffffffffffff16815260200190815260200160002060008373ffffffffffffffffffffffffffffffffffffffff1673ffffffffffffffffffffffffffffffffffffffff16815260200190815260200160002054905092915050565b600033905090565b600073ffffffffffffffffffffffffffffffffffffffff168373ffffffffffffffffffffffffffffffffffffffff161415610d89576040517f08c379a0000000000000000000000000000000000000000000000000000000008152600401610d8090611e47565b60405180910390fd5b600073ffffffffffffffffffffffffffffffffffffffff168273ffffffffffffffffffffffffffffffffffffffff161415610df9576040517f08c379a0000000000000000000000000000000000000000000000000000000008152600401610df090611ed9565b60405180910390fd5b80600160008573ffffffffffffffffffffffffffffffffffffffff1673ffffffffffffffffffffffffffffffffffffffff16815260200190815260200160002060008473ffffffffffffffffffffffffffffffffffffffff1673ffffffffffffffffffffffffffffffffffffffff168152602001908152602001600020819055508173ffffffffffffffffffffffffffffffffffffffff168373ffffffffffffffffffffffffffffffffffffffff167f8c5be1e5ebec7d5bd14f71427d1e84f3dd0314c0f7b2291e5b200ac8c7c3b92583604051610ed79190611613565b60405180910390a3505050565b6000610ef08484610c8a565b90507fffffffffffffffffffffffffffffffffffffffffffffffffffffffffffffffff8114610f6a5781811015610f5c576040517f08c379a0000000000000000000000000000000000000000000000000000000008152600401610f5390611f45565b60405180910390fd5b610f698484848403610d19565b5b50505050565b600073ffffffffffffffffffffffffffffffffffffffff168373ffffffffffffffffffffffffffffffffffffffff161415610fe0576040517f08c379a0000000000000000000000000000000000000000000000000000000008152600401610fd790611fd7565b60405180910390fd5b600073ffffffffffffffffffffffffffffffffffffffff168273ffffffffffffffffffffffffffffffffffffffff161415611050576040517f08c379a000000000000000000000000000000000000000000000000000000000815260040161104790612069565b60405180910390fd5b61105b838383611351565b60008060008573ffffffffffffffffffffffffffffffffffffffff1673ffffffffffffffffffffffffffffffffffffffff168152602001908152602001600020549050818110156110e1576040517f08c379a00000000000000000000000000000000000000000000000000000000081526004016110d8906120fb565b60405180910390fd5b8181036000808673ffffffffffffffffffffffffffffffffffffffff1673ffffffffffffffffffffffffffffffffffffffff16815260200190815260200160002081905550816000808573ffffffffffffffffffffffffffffffffffffffff1673ffffffffffffffffffffffffffffffffffffffff16815260200190815260200160002060008282546111749190611b2c565b925050819055508273ffffffffffffffffffffffffffffffffffffffff168473ffffffffffffffffffffffffffffffffffffffff167fddf252ad1be2c89b69c2b068fc378daa952ba7f163c4a11628f55a4df523b3ef846040516111d89190611613565b60405180910390a36111eb848484611356565b50505050565b600073ffffffffffffffffffffffffffffffffffffffff168273ffffffffffffffffffffffffffffffffffffffff161415611261576040517f08c379a000000000000000000000000000000000000000000000000000000000815260040161125890612167565b60405180910390fd5b61126d60008383611351565b806002600082825461127f9190611b2c565b92505081905550806000808473ffffffffffffffffffffffffffffffffffffffff1673ffffffffffffffffffffffffffffffffffffffff16815260200190815260200160002060008282546112d49190611b2c565b925050819055508173ffffffffffffffffffffffffffffffffffffffff16600073ffffffffffffffffffffffffffffffffffffffff167fddf252ad1be2c89b69c2b068fc378daa952ba7f163c4a11628f55a4df523b3ef836040516113399190611613565b60405180910390a361134d60008383611356565b5050565b505050565b505050565b82805461136790611afa565b90600052602060002090601f01602090048101928261138957600085556113d0565b82601f106113a257805160ff19168380011785556113d0565b828001600101855582156113d0579182015b828111156113cf5782518255916020019190600101906113b4565b5b5090506113dd91906113e1565b5090565b5b808211156113fa5760008160009055506001016113e2565b5090565b6000604051905090565b600080fd5b600080fd5b6000819050919050565b61142581611412565b811461143057600080fd5b50565b6000813590506114428161141c565b92915050565b60006020828403121561145e5761145d611408565b5b600061146c84828501611433565b91505092915050565b600081519050919050565b600082825260208201905092915050565b60005b838110156114af578082015181840152602081019050611494565b838111156114be576000848401525b50505050565b6000601f19601f8301169050919050565b60006114e082611475565b6114ea8185611480565b93506114fa818560208601611491565b611503816114c4565b840191505092915050565b6000602082019050818103600083015261152881846114d5565b905092915050565b600073ffffffffffffffffffffffffffffffffffffffff82169050919050565b600061155b82611530565b9050919050565b61156b81611550565b811461157657600080fd5b50565b60008135905061158881611562565b92915050565b600080604083850312156115a5576115a4611408565b5b60006115b385828601611579565b92505060206115c485828601611433565b9150509250929050565b60008115159050919050565b6115e3816115ce565b82525050565b60006020820190506115fe60008301846115da565b92915050565b61160d81611412565b82525050565b60006020820190506116286000830184611604565b92915050565b60008060006060848603121561164757611646611408565b5b600061165586828701611579565b935050602061166686828701611579565b925050604061167786828701611433565b9150509250925092565b600060ff82169050919050565b61169781611681565b82525050565b60006020820190506116b2600083018461168e565b92915050565b6000602082840312156116ce576116cd611408565b5b60006116dc84828501611579565b91505092915050565b600080fd5b600080fd5b7f4e487b7100000000000000000000000000000000000000000000000000000000600052604160045260246000fd5b611727826114c4565b810181811067ffffffffffffffff82111715611746576117456116ef565b5b80604052505050565b60006117596113fe565b9050611765828261171e565b919050565b600067ffffffffffffffff821115611785576117846116ef565b5b61178e826114c4565b9050602081019050919050565b82818337600083830152505050565b60006117bd6117b88461176a565b61174f565b9050828152602081018484840111156117d9576117d86116ea565b5b6117e484828561179b565b509392505050565b600082601f830112611801576118006116e5565b5b81356118118482602086016117aa565b91505092915050565b60008060006060848603121561183357611832611408565b5b600084013567ffffffffffffffff8111156118515761185061140d565b5b61185d868287016117ec565b935050602061186e86828701611433565b925050604061187f86828701611579565b9150509250925092565b600080604083850312156118a05761189f611408565b5b60006118ae85828601611579565b92505060206118bf85828601611579565b9150509250929050565b7f4e6f7420746865206f776e657221000000000000000000000000000000000000600082015250565b60006118ff600e83611480565b915061190a826118c9565b602082019050919050565b6000602082019050818103600083015261192e816118f2565b9050919050565b7f4e487b7100000000000000000000000000000000000000000000000000000000600052603260045260246000fd5b7f7265717565737420616c7265617920636f6d706c657465640000000000000000600082015250565b600061199a601883611480565b91506119a582611964565b602082019050919050565b600060208201905081810360008301526119c98161198d565b9050919050565b7f4e487b7100000000000000000000000000000000000000000000000000000000600052601260045260246000fd5b7f4e487b7100000000000000000000000000000000000000000000000000000000600052601160045260246000fd5b6000611a3982611412565b9150611a4483611412565b925082611a5457611a536119d0565b5b828204905092915050565b7f6e6f742065676e6f75676820617070726f757665727300000000000000000000600082015250565b6000611a95601683611480565b9150611aa082611a5f565b602082019050919050565b60006020820190508181036000830152611ac481611a88565b9050919050565b7f4e487b7100000000000000000000000000000000000000000000000000000000600052602260045260246000fd5b60006002820490506001821680611b1257607f821691505b60208210811415611b2657611b25611acb565b5b50919050565b6000611b3782611412565b9150611b4283611412565b9250827fffffffffffffffffffffffffffffffffffffffffffffffffffffffffffffffff03821115611b7757611b766119ff565b5b828201905092915050565b6000611b8d82611412565b9150611b9883611412565b925082821015611bab57611baa6119ff565b5b828203905092915050565b7f45524332303a2064656372656173656420616c6c6f77616e63652062656c6f7760008201527f207a65726f000000000000000000000000000000000000000000000000000000602082015250565b6000611c12602583611480565b9150611c1d82611bb6565b604082019050919050565b60006020820190508181036000830152611c4181611c05565b9050919050565b7f636f6e747269627574696f6e203c206d696e696d756d00000000000000000000600082015250565b6000611c7e601683611480565b9150611c8982611c48565b602082019050919050565b60006020820190508181036000830152611cad81611c71565b9050919050565b6000611cbf82611412565b91507fffffffffffffffffffffffffffffffffffffffffffffffffffffffffffffffff821415611cf257611cf16119ff565b5b600182019050919050565b7f75736572206e6f7420616e20636f6e7472696275746f72000000000000000000600082015250565b6000611d33601783611480565b9150611d3e82611cfd565b602082019050919050565b60006020820190508181036000830152611d6281611d26565b9050919050565b7f616c726561647920617070726f76650000000000000000000000000000000000600082015250565b6000611d9f600f83611480565b9150611daa82611d69565b602082019050919050565b60006020820190508181036000830152611dce81611d92565b9050919050565b7f45524332303a20617070726f76652066726f6d20746865207a65726f2061646460008201527f7265737300000000000000000000000000000000000000000000000000000000602082015250565b6000611e31602483611480565b9150611e3c82611dd5565b604082019050919050565b60006020820190508181036000830152611e6081611e24565b9050919050565b7f45524332303a20617070726f766520746f20746865207a65726f20616464726560008201527f7373000000000000000000000000000000000000000000000000000000000000602082015250565b6000611ec3602283611480565b9150611ece82611e67565b604082019050919050565b60006020820190508181036000830152611ef281611eb6565b9050919050565b7f45524332303a20696e73756666696369656e7420616c6c6f77616e6365000000600082015250565b6000611f2f601d83611480565b9150611f3a82611ef9565b602082019050919050565b60006020820190508181036000830152611f5e81611f22565b9050919050565b7f45524332303a207472616e736665722066726f6d20746865207a65726f20616460008201527f6472657373000000000000000000000000000000000000000000000000000000602082015250565b6000611fc1602583611480565b9150611fcc82611f65565b604082019050919050565b60006020820190508181036000830152611ff081611fb4565b9050919050565b7f45524332303a207472616e7366657220746f20746865207a65726f206164647260008201527f6573730000000000000000000000000000000000000000000000000000000000602082015250565b6000612053602383611480565b915061205e82611ff7565b604082019050919050565b6000602082019050818103600083015261208281612046565b9050919050565b7f45524332303a207472616e7366657220616d6f756e742065786365656473206260008201527f616c616e63650000000000000000000000000000000000000000000000000000602082015250565b60006120e5602683611480565b91506120f082612089565b604082019050919050565b60006020820190508181036000830152612114816120d8565b9050919050565b7f45524332303a206d696e7420746f20746865207a65726f206164647265737300600082015250565b6000612151601f83611480565b915061215c8261211b565b602082019050919050565b6000602082019050818103600083015261218081612144565b905091905056fea2646970667358221220ed87fd7fd9c18fbac02c1ea40ecc64dc626fb5fe37e6b57eeeccaabac4590b2e64736f6c63430008090033a264697066735822122051e84b5dc9156029fcf70b5aa0014704906b506ca02fb51eef0a8d914c94a2ea64736f6c63430008090033",
  "linkReferences": {},
  "deployedLinkReferences": {}
}