{
  "_format": "hh-sol-artifact-1",
  "contractName": "Campaign",
  "sourceName": "contracts/Campaign.sol",
  "abi": [
    {
      "inputs": [
        {
          "internalType": "uint256",
          "name": "_minimum",
          "type": "uint256"
        },
        {
          "internalType": "string",
          "name": "_name",
          "type": "string"
        },
        {
          "internalType": "string",
          "name": "_symbol",
          "type": "string"
        }
      ],
      "stateMutability": "nonpayable",
      "type": "constructor"
    },
    {
      "anonymous": false,
      "inputs": [
        {
          "indexed": true,
          "internalType": "address",
          "name": "owner",
          "type": "address"
        },
        {
          "indexed": true,
          "internalType": "address",
          "name": "spender",
          "type": "address"
        },
        {
          "indexed": false,
          "internalType": "uint256",
          "name": "value",
          "type": "uint256"
        }
      ],
      "name": "Approval",
      "type": "event"
    },
    {
      "anonymous": false,
      "inputs": [
        {
          "indexed": true,
          "internalType": "address",
          "name": "from",
          "type": "address"
        },
        {
          "indexed": true,
          "internalType": "address",
          "name": "to",
          "type": "address"
        },
        {
          "indexed": false,
          "internalType": "uint256",
          "name": "value",
          "type": "uint256"
        }
      ],
      "name": "Transfer",
      "type": "event"
    },
    {
      "inputs": [
        {
          "internalType": "address",
          "name": "owner",
          "type": "address"
        },
        {
          "internalType": "address",
          "name": "spender",
          "type": "address"
        }
      ],
      "name": "allowance",
      "outputs": [
        {
          "internalType": "uint256",
          "name": "",
          "type": "uint256"
        }
      ],
      "stateMutability": "view",
      "type": "function"
    },
    {
      "inputs": [
        {
          "internalType": "address",
          "name": "spender",
          "type": "address"
        },
        {
          "internalType": "uint256",
          "name": "amount",
          "type": "uint256"
        }
      ],
      "name": "approve",
      "outputs": [
        {
          "internalType": "bool",
          "name": "",
          "type": "bool"
        }
      ],
      "stateMutability": "nonpayable",
      "type": "function"
    },
    {
      "inputs": [
        {
          "internalType": "address",
          "name": "account",
          "type": "address"
        }
      ],
      "name": "balanceOf",
      "outputs": [
        {
          "internalType": "uint256",
          "name": "",
          "type": "uint256"
        }
      ],
      "stateMutability": "view",
      "type": "function"
    },
    {
      "inputs": [],
      "name": "contribute",
      "outputs": [
        {
          "internalType": "bool",
          "name": "",
          "type": "bool"
        }
      ],
      "stateMutability": "payable",
      "type": "function"
    },
    {
      "inputs": [],
      "name": "decimals",
      "outputs": [
        {
          "internalType": "uint8",
          "name": "",
          "type": "uint8"
        }
      ],
      "stateMutability": "view",
      "type": "function"
    },
    {
      "inputs": [
        {
          "internalType": "address",
          "name": "spender",
          "type": "address"
        },
        {
          "internalType": "uint256",
          "name": "subtractedValue",
          "type": "uint256"
        }
      ],
      "name": "decreaseAllowance",
      "outputs": [
        {
          "internalType": "bool",
          "name": "",
          "type": "bool"
        }
      ],
      "stateMutability": "nonpayable",
      "type": "function"
    },
    {
      "inputs": [
        {
          "internalType": "address",
          "name": "spender",
          "type": "address"
        },
        {
          "internalType": "uint256",
          "name": "addedValue",
          "type": "uint256"
        }
      ],
      "name": "increaseAllowance",
      "outputs": [
        {
          "internalType": "bool",
          "name": "",
          "type": "bool"
        }
      ],
      "stateMutability": "nonpayable",
      "type": "function"
    },
    {
      "inputs": [],
      "name": "name",
      "outputs": [
        {
          "internalType": "string",
          "name": "",
          "type": "string"
        }
      ],
      "stateMutability": "view",
      "type": "function"
    },
    {
      "inputs": [],
      "name": "symbol",
      "outputs": [
        {
          "internalType": "string",
          "name": "",
          "type": "string"
        }
      ],
      "stateMutability": "view",
      "type": "function"
    },
    {
      "inputs": [],
      "name": "totalSupply",
      "outputs": [
        {
          "internalType": "uint256",
          "name": "",
          "type": "uint256"
        }
      ],
      "stateMutability": "view",
      "type": "function"
    },
    {
      "inputs": [
        {
          "internalType": "address",
          "name": "to",
          "type": "address"
        },
        {
          "internalType": "uint256",
          "name": "amount",
          "type": "uint256"
        }
      ],
      "name": "transfer",
      "outputs": [
        {
          "internalType": "bool",
          "name": "",
          "type": "bool"
        }
      ],
      "stateMutability": "nonpayable",
      "type": "function"
    },
    {
      "inputs": [
        {
          "internalType": "address",
          "name": "from",
          "type": "address"
        },
        {
          "internalType": "address",
          "name": "to",
          "type": "address"
        },
        {
          "internalType": "uint256",
          "name": "amount",
          "type": "uint256"
        }
      ],
      "name": "transferFrom",
      "outputs": [
        {
          "internalType": "bool",
          "name": "",
          "type": "bool"
        }
      ],
      "stateMutability": "nonpayable",
      "type": "function"
    }
  ],
  "bytecode": "0x60806040523480156200001157600080fd5b50604051620019bb380380620019bb833981810160405281019062000037919062000305565b81818160039080519060200190620000519291906200007d565b5080600490805190602001906200006a9291906200007d565b5050508260058190555050505062000404565b8280546200008b90620003ce565b90600052602060002090601f016020900481019282620000af5760008555620000fb565b82601f10620000ca57805160ff1916838001178555620000fb565b82800160010185558215620000fb579182015b82811115620000fa578251825591602001919060010190620000dd565b5b5090506200010a91906200010e565b5090565b5b80821115620001295760008160009055506001016200010f565b5090565b6000604051905090565b600080fd5b600080fd5b6000819050919050565b620001568162000141565b81146200016257600080fd5b50565b60008151905062000176816200014b565b92915050565b600080fd5b600080fd5b6000601f19601f8301169050919050565b7f4e487b7100000000000000000000000000000000000000000000000000000000600052604160045260246000fd5b620001d18262000186565b810181811067ffffffffffffffff82111715620001f357620001f262000197565b5b80604052505050565b6000620002086200012d565b9050620002168282620001c6565b919050565b600067ffffffffffffffff82111562000239576200023862000197565b5b620002448262000186565b9050602081019050919050565b60005b838110156200027157808201518184015260208101905062000254565b8381111562000281576000848401525b50505050565b60006200029e62000298846200021b565b620001fc565b905082815260208101848484011115620002bd57620002bc62000181565b5b620002ca84828562000251565b509392505050565b600082601f830112620002ea57620002e96200017c565b5b8151620002fc84826020860162000287565b91505092915050565b60008060006060848603121562000321576200032062000137565b5b6000620003318682870162000165565b935050602084015167ffffffffffffffff8111156200035557620003546200013c565b5b6200036386828701620002d2565b925050604084015167ffffffffffffffff8111156200038757620003866200013c565b5b6200039586828701620002d2565b9150509250925092565b7f4e487b7100000000000000000000000000000000000000000000000000000000600052602260045260246000fd5b60006002820490506001821680620003e757607f821691505b60208210811415620003fe57620003fd6200039f565b5b50919050565b6115a780620004146000396000f3fe6080604052600436106100a75760003560e01c806370a082311161006457806370a08231146101e457806395d89b4114610221578063a457c2d71461024c578063a9059cbb14610289578063d7bb99ba146102c6578063dd62ed3e146102e4576100a7565b806306fdde03146100ac578063095ea7b3146100d757806318160ddd1461011457806323b872dd1461013f578063313ce5671461017c57806339509351146101a7575b600080fd5b3480156100b857600080fd5b506100c1610321565b6040516100ce9190610d89565b60405180910390f35b3480156100e357600080fd5b506100fe60048036038101906100f99190610e44565b6103b3565b60405161010b9190610e9f565b60405180910390f35b34801561012057600080fd5b506101296103d6565b6040516101369190610ec9565b60405180910390f35b34801561014b57600080fd5b5061016660048036038101906101619190610ee4565b6103e0565b6040516101739190610e9f565b60405180910390f35b34801561018857600080fd5b5061019161040f565b60405161019e9190610f53565b60405180910390f35b3480156101b357600080fd5b506101ce60048036038101906101c99190610e44565b610418565b6040516101db9190610e9f565b60405180910390f35b3480156101f057600080fd5b5061020b60048036038101906102069190610f6e565b61044f565b6040516102189190610ec9565b60405180910390f35b34801561022d57600080fd5b50610236610497565b6040516102439190610d89565b60405180910390f35b34801561025857600080fd5b50610273600480360381019061026e9190610e44565b610529565b6040516102809190610e9f565b60405180910390f35b34801561029557600080fd5b506102b060048036038101906102ab9190610e44565b6105a0565b6040516102bd9190610e9f565b60405180910390f35b6102ce6105c3565b6040516102db9190610e9f565b60405180910390f35b3480156102f057600080fd5b5061030b60048036038101906103069190610f9b565b61061f565b6040516103189190610ec9565b60405180910390f35b6060600380546103309061100a565b80601f016020809104026020016040519081016040528092919081815260200182805461035c9061100a565b80156103a95780601f1061037e576101008083540402835291602001916103a9565b820191906000526020600020905b81548152906001019060200180831161038c57829003601f168201915b5050505050905090565b6000806103be6106a6565b90506103cb8185856106ae565b600191505092915050565b6000600254905090565b6000806103eb6106a6565b90506103f8858285610879565b610403858585610905565b60019150509392505050565b60006012905090565b6000806104236106a6565b9050610444818585610435858961061f565b61043f919061106b565b6106ae565b600191505092915050565b60008060008373ffffffffffffffffffffffffffffffffffffffff1673ffffffffffffffffffffffffffffffffffffffff168152602001908152602001600020549050919050565b6060600480546104a69061100a565b80601f01602080910402602001604051908101604052809291908181526020018280546104d29061100a565b801561051f5780601f106104f45761010080835404028352916020019161051f565b820191906000526020600020905b81548152906001019060200180831161050257829003601f168201915b5050505050905090565b6000806105346106a6565b90506000610542828661061f565b905083811015610587576040517f08c379a000000000000000000000000000000000000000000000000000000000815260040161057e90611133565b60405180910390fd5b61059482868684036106ae565b60019250505092915050565b6000806105ab6106a6565b90506105b8818585610905565b600191505092915050565b600080349050600554811161060d576040517f08c379a00000000000000000000000000000000000000000000000000000000081526004016106049061119f565b60405180910390fd5b6106173382610b86565b600191505090565b6000600160008473ffffffffffffffffffffffffffffffffffffffff1673ffffffffffffffffffffffffffffffffffffffff16815260200190815260200160002060008373ffffffffffffffffffffffffffffffffffffffff1673ffffffffffffffffffffffffffffffffffffffff16815260200190815260200160002054905092915050565b600033905090565b600073ffffffffffffffffffffffffffffffffffffffff168373ffffffffffffffffffffffffffffffffffffffff16141561071e576040517f08c379a000000000000000000000000000000000000000000000000000000000815260040161071590611231565b60405180910390fd5b600073ffffffffffffffffffffffffffffffffffffffff168273ffffffffffffffffffffffffffffffffffffffff16141561078e576040517f08c379a0000000000000000000000000000000000000000000000000000000008152600401610785906112c3565b60405180910390fd5b80600160008573ffffffffffffffffffffffffffffffffffffffff1673ffffffffffffffffffffffffffffffffffffffff16815260200190815260200160002060008473ffffffffffffffffffffffffffffffffffffffff1673ffffffffffffffffffffffffffffffffffffffff168152602001908152602001600020819055508173ffffffffffffffffffffffffffffffffffffffff168373ffffffffffffffffffffffffffffffffffffffff167f8c5be1e5ebec7d5bd14f71427d1e84f3dd0314c0f7b2291e5b200ac8c7c3b9258360405161086c9190610ec9565b60405180910390a3505050565b6000610885848461061f565b90507fffffffffffffffffffffffffffffffffffffffffffffffffffffffffffffffff81146108ff57818110156108f1576040517f08c379a00000000000000000000000000000000000000000000000000000000081526004016108e89061132f565b60405180910390fd5b6108fe84848484036106ae565b5b50505050565b600073ffffffffffffffffffffffffffffffffffffffff168373ffffffffffffffffffffffffffffffffffffffff161415610975576040517f08c379a000000000000000000000000000000000000000000000000000000000815260040161096c906113c1565b60405180910390fd5b600073ffffffffffffffffffffffffffffffffffffffff168273ffffffffffffffffffffffffffffffffffffffff1614156109e5576040517f08c379a00000000000000000000000000000000000000000000000000000000081526004016109dc90611453565b60405180910390fd5b6109f0838383610ce6565b60008060008573ffffffffffffffffffffffffffffffffffffffff1673ffffffffffffffffffffffffffffffffffffffff16815260200190815260200160002054905081811015610a76576040517f08c379a0000000000000000000000000000000000000000000000000000000008152600401610a6d906114e5565b60405180910390fd5b8181036000808673ffffffffffffffffffffffffffffffffffffffff1673ffffffffffffffffffffffffffffffffffffffff16815260200190815260200160002081905550816000808573ffffffffffffffffffffffffffffffffffffffff1673ffffffffffffffffffffffffffffffffffffffff1681526020019081526020016000206000828254610b09919061106b565b925050819055508273ffffffffffffffffffffffffffffffffffffffff168473ffffffffffffffffffffffffffffffffffffffff167fddf252ad1be2c89b69c2b068fc378daa952ba7f163c4a11628f55a4df523b3ef84604051610b6d9190610ec9565b60405180910390a3610b80848484610ceb565b50505050565b600073ffffffffffffffffffffffffffffffffffffffff168273ffffffffffffffffffffffffffffffffffffffff161415610bf6576040517f08c379a0000000000000000000000000000000000000000000000000000000008152600401610bed90611551565b60405180910390fd5b610c0260008383610ce6565b8060026000828254610c14919061106b565b92505081905550806000808473ffffffffffffffffffffffffffffffffffffffff1673ffffffffffffffffffffffffffffffffffffffff1681526020019081526020016000206000828254610c69919061106b565b925050819055508173ffffffffffffffffffffffffffffffffffffffff16600073ffffffffffffffffffffffffffffffffffffffff167fddf252ad1be2c89b69c2b068fc378daa952ba7f163c4a11628f55a4df523b3ef83604051610cce9190610ec9565b60405180910390a3610ce260008383610ceb565b5050565b505050565b505050565b600081519050919050565b600082825260208201905092915050565b60005b83811015610d2a578082015181840152602081019050610d0f565b83811115610d39576000848401525b50505050565b6000601f19601f8301169050919050565b6000610d5b82610cf0565b610d658185610cfb565b9350610d75818560208601610d0c565b610d7e81610d3f565b840191505092915050565b60006020820190508181036000830152610da38184610d50565b905092915050565b600080fd5b600073ffffffffffffffffffffffffffffffffffffffff82169050919050565b6000610ddb82610db0565b9050919050565b610deb81610dd0565b8114610df657600080fd5b50565b600081359050610e0881610de2565b92915050565b6000819050919050565b610e2181610e0e565b8114610e2c57600080fd5b50565b600081359050610e3e81610e18565b92915050565b60008060408385031215610e5b57610e5a610dab565b5b6000610e6985828601610df9565b9250506020610e7a85828601610e2f565b9150509250929050565b60008115159050919050565b610e9981610e84565b82525050565b6000602082019050610eb46000830184610e90565b92915050565b610ec381610e0e565b82525050565b6000602082019050610ede6000830184610eba565b92915050565b600080600060608486031215610efd57610efc610dab565b5b6000610f0b86828701610df9565b9350506020610f1c86828701610df9565b9250506040610f2d86828701610e2f565b9150509250925092565b600060ff82169050919050565b610f4d81610f37565b82525050565b6000602082019050610f686000830184610f44565b92915050565b600060208284031215610f8457610f83610dab565b5b6000610f9284828501610df9565b91505092915050565b60008060408385031215610fb257610fb1610dab565b5b6000610fc085828601610df9565b9250506020610fd185828601610df9565b9150509250929050565b7f4e487b7100000000000000000000000000000000000000000000000000000000600052602260045260246000fd5b6000600282049050600182168061102257607f821691505b6020821081141561103657611035610fdb565b5b50919050565b7f4e487b7100000000000000000000000000000000000000000000000000000000600052601160045260246000fd5b600061107682610e0e565b915061108183610e0e565b9250827fffffffffffffffffffffffffffffffffffffffffffffffffffffffffffffffff038211156110b6576110b561103c565b5b828201905092915050565b7f45524332303a2064656372656173656420616c6c6f77616e63652062656c6f7760008201527f207a65726f000000000000000000000000000000000000000000000000000000602082015250565b600061111d602583610cfb565b9150611128826110c1565b604082019050919050565b6000602082019050818103600083015261114c81611110565b9050919050565b7f636f6e747269627574696f6e203c206d696e696d756d00000000000000000000600082015250565b6000611189601683610cfb565b915061119482611153565b602082019050919050565b600060208201905081810360008301526111b88161117c565b9050919050565b7f45524332303a20617070726f76652066726f6d20746865207a65726f2061646460008201527f7265737300000000000000000000000000000000000000000000000000000000602082015250565b600061121b602483610cfb565b9150611226826111bf565b604082019050919050565b6000602082019050818103600083015261124a8161120e565b9050919050565b7f45524332303a20617070726f766520746f20746865207a65726f20616464726560008201527f7373000000000000000000000000000000000000000000000000000000000000602082015250565b60006112ad602283610cfb565b91506112b882611251565b604082019050919050565b600060208201905081810360008301526112dc816112a0565b9050919050565b7f45524332303a20696e73756666696369656e7420616c6c6f77616e6365000000600082015250565b6000611319601d83610cfb565b9150611324826112e3565b602082019050919050565b600060208201905081810360008301526113488161130c565b9050919050565b7f45524332303a207472616e736665722066726f6d20746865207a65726f20616460008201527f6472657373000000000000000000000000000000000000000000000000000000602082015250565b60006113ab602583610cfb565b91506113b68261134f565b604082019050919050565b600060208201905081810360008301526113da8161139e565b9050919050565b7f45524332303a207472616e7366657220746f20746865207a65726f206164647260008201527f6573730000000000000000000000000000000000000000000000000000000000602082015250565b600061143d602383610cfb565b9150611448826113e1565b604082019050919050565b6000602082019050818103600083015261146c81611430565b9050919050565b7f45524332303a207472616e7366657220616d6f756e742065786365656473206260008201527f616c616e63650000000000000000000000000000000000000000000000000000602082015250565b60006114cf602683610cfb565b91506114da82611473565b604082019050919050565b600060208201905081810360008301526114fe816114c2565b9050919050565b7f45524332303a206d696e7420746f20746865207a65726f206164647265737300600082015250565b600061153b601f83610cfb565b915061154682611505565b602082019050919050565b6000602082019050818103600083015261156a8161152e565b905091905056fea264697066735822122066092ad560d39beb9df4fbeaa5ffc18eb2599e471c30ff9a8eb8b67d393ce83064736f6c63430008090033",
  "linkReferences": {},
  "deployedLinkReferences": {}
}