{
  "_format": "hh-sol-artifact-1",
  "contractName": "Token",
  "sourceName": "contracts/Token.sol",
  "abi": [
    {
      "inputs": [
        {
          "internalType": "string",
          "name": "_name",
          "type": "string"
        },
        {
          "internalType": "string",
          "name": "_symbol",
          "type": "string"
        },
        {
          "internalType": "uint8",
          "name": "_decimals",
          "type": "uint8"
        },
        {
          "internalType": "uint256",
          "name": "_totalSupply",
          "type": "uint256"
        }
      ],
      "stateMutability": "nonpayable",
      "type": "constructor"
    },
    {
      "inputs": [
        {
          "internalType": "address",
          "name": "_address",
          "type": "address"
        }
      ],
      "name": "balanceOf",
      "outputs": [
        {
          "internalType": "uint256",
          "name": "",
          "type": "uint256"
        }
      ],
      "stateMutability": "view",
      "type": "function"
    },
    {
      "inputs": [],
      "name": "getAllNames",
      "outputs": [
        {
          "internalType": "string[]",
          "name": "names_",
          "type": "string[]"
        }
      ],
      "stateMutability": "nonpayable",
      "type": "function"
    },
    {
      "inputs": [],
      "name": "getDecimals",
      "outputs": [
        {
          "internalType": "uint8",
          "name": "",
          "type": "uint8"
        }
      ],
      "stateMutability": "view",
      "type": "function"
    },
    {
      "inputs": [],
      "name": "getName",
      "outputs": [
        {
          "internalType": "string",
          "name": "_name",
          "type": "string"
        }
      ],
      "stateMutability": "view",
      "type": "function"
    },
    {
      "inputs": [],
      "name": "getSymbol",
      "outputs": [
        {
          "internalType": "string",
          "name": "",
          "type": "string"
        }
      ],
      "stateMutability": "view",
      "type": "function"
    },
    {
      "inputs": [],
      "name": "getTotalSupply",
      "outputs": [
        {
          "internalType": "uint256",
          "name": "",
          "type": "uint256"
        }
      ],
      "stateMutability": "view",
      "type": "function"
    },
    {
      "inputs": [
        {
          "internalType": "uint256",
          "name": "_amount",
          "type": "uint256"
        }
      ],
      "name": "mint",
      "outputs": [],
      "stateMutability": "nonpayable",
      "type": "function"
    },
    {
      "inputs": [
        {
          "internalType": "string",
          "name": "_name",
          "type": "string"
        }
      ],
      "name": "setMapName",
      "outputs": [],
      "stateMutability": "nonpayable",
      "type": "function"
    },
    {
      "inputs": [
        {
          "internalType": "string",
          "name": "_name",
          "type": "string"
        }
      ],
      "name": "setName",
      "outputs": [],
      "stateMutability": "nonpayable",
      "type": "function"
    },
    {
      "inputs": [
        {
          "internalType": "address",
          "name": "_to",
          "type": "address"
        },
        {
          "internalType": "uint256",
          "name": "_value",
          "type": "uint256"
        }
      ],
      "name": "transfer",
      "outputs": [
        {
          "internalType": "bool",
          "name": "",
          "type": "bool"
        }
      ],
      "stateMutability": "nonpayable",
      "type": "function"
    }
  ],
  "bytecode": "0x60806040523480156200001157600080fd5b50604051620015503803806200155083398181016040528101906200003791906200039c565b83600090805190602001906200004f929190620000d6565b50826001908051906020019062000068929190620000d6565b5081600260006101000a81548160ff021916908360ff1602179055508060038190555033600460006101000a81548173ffffffffffffffffffffffffffffffffffffffff021916908373ffffffffffffffffffffffffffffffffffffffff16021790555050505050620004b1565b828054620000e4906200047b565b90600052602060002090601f01602090048101928262000108576000855562000154565b82601f106200012357805160ff191683800117855562000154565b8280016001018555821562000154579182015b828111156200015357825182559160200191906001019062000136565b5b50905062000163919062000167565b5090565b5b808211156200018257600081600090555060010162000168565b5090565b6000604051905090565b600080fd5b600080fd5b600080fd5b600080fd5b6000601f19601f8301169050919050565b7f4e487b7100000000000000000000000000000000000000000000000000000000600052604160045260246000fd5b620001ef82620001a4565b810181811067ffffffffffffffff82111715620002115762000210620001b5565b5b80604052505050565b60006200022662000186565b9050620002348282620001e4565b919050565b600067ffffffffffffffff821115620002575762000256620001b5565b5b6200026282620001a4565b9050602081019050919050565b60005b838110156200028f57808201518184015260208101905062000272565b838111156200029f576000848401525b50505050565b6000620002bc620002b68462000239565b6200021a565b905082815260208101848484011115620002db57620002da6200019f565b5b620002e88482856200026f565b509392505050565b600082601f8301126200030857620003076200019a565b5b81516200031a848260208601620002a5565b91505092915050565b600060ff82169050919050565b6200033b8162000323565b81146200034757600080fd5b50565b6000815190506200035b8162000330565b92915050565b6000819050919050565b620003768162000361565b81146200038257600080fd5b50565b60008151905062000396816200036b565b92915050565b60008060008060808587031215620003b957620003b862000190565b5b600085015167ffffffffffffffff811115620003da57620003d962000195565b5b620003e887828801620002f0565b945050602085015167ffffffffffffffff8111156200040c576200040b62000195565b5b6200041a87828801620002f0565b93505060406200042d878288016200034a565b9250506060620004408782880162000385565b91505092959194509250565b7f4e487b7100000000000000000000000000000000000000000000000000000000600052602260045260246000fd5b600060028204905060018216806200049457607f821691505b60208210811415620004ab57620004aa6200044c565b5b50919050565b61108f80620004c16000396000f3fe608060405234801561001057600080fd5b506004361061009e5760003560e01c8063a9059cbb11610066578063a9059cbb14610147578063c47f002714610177578063c4e41b2214610193578063f0141d84146101b1578063fb825e5f146101cf5761009e565b80630ed944b1146100a357806315070401146100bf57806317d7de7c146100dd57806370a08231146100fb578063a0712d681461012b575b600080fd5b6100bd60048036038101906100b89190610a09565b6101ed565b005b6100c76102a7565b6040516100d49190610ada565b60405180910390f35b6100e5610339565b6040516100f29190610ada565b60405180910390f35b61011560048036038101906101109190610b5a565b6103cb565b6040516101229190610ba0565b60405180910390f35b61014560048036038101906101409190610be7565b610414565b005b610161600480360381019061015c9190610c14565b61045b565b60405161016e9190610c6f565b60405180910390f35b610191600480360381019061018c9190610a09565b610599565b005b61019b610643565b6040516101a89190610ba0565b60405180910390f35b6101b961064d565b6040516101c69190610ca6565b60405180910390f35b6101d7610664565b6040516101e49190610dcd565b60405180910390f35b80600560003373ffffffffffffffffffffffffffffffffffffffff1673ffffffffffffffffffffffffffffffffffffffff168152602001908152602001600020908051906020019061024092919061080c565b506006339080600181540180825580915050600190039060005260206000200160009091909190916101000a81548173ffffffffffffffffffffffffffffffffffffffff021916908373ffffffffffffffffffffffffffffffffffffffff16021790555050565b6060600180546102b690610e1e565b80601f01602080910402602001604051908101604052809291908181526020018280546102e290610e1e565b801561032f5780601f106103045761010080835404028352916020019161032f565b820191906000526020600020905b81548152906001019060200180831161031257829003601f168201915b5050505050905090565b60606000805461034890610e1e565b80601f016020809104026020016040519081016040528092919081815260200182805461037490610e1e565b80156103c15780601f10610396576101008083540402835291602001916103c1565b820191906000526020600020905b8154815290600101906020018083116103a457829003601f168201915b5050505050905090565b6000600760008373ffffffffffffffffffffffffffffffffffffffff1673ffffffffffffffffffffffffffffffffffffffff168152602001908152602001600020549050919050565b80600760003373ffffffffffffffffffffffffffffffffffffffff1673ffffffffffffffffffffffffffffffffffffffff1681526020019081526020016000208190555050565b6000803390506000600760008373ffffffffffffffffffffffffffffffffffffffff1673ffffffffffffffffffffffffffffffffffffffff168152602001908152602001600020549050838110156104e8576040517f08c379a00000000000000000000000000000000000000000000000000000000081526004016104df90610e9c565b60405180910390fd5b83816104f49190610eeb565b600760008473ffffffffffffffffffffffffffffffffffffffff1673ffffffffffffffffffffffffffffffffffffffff1681526020019081526020016000208190555083600760008773ffffffffffffffffffffffffffffffffffffffff1673ffffffffffffffffffffffffffffffffffffffff16815260200190815260200160002060008282546105869190610f1f565b9250508190555060019250505092915050565b600460009054906101000a900473ffffffffffffffffffffffffffffffffffffffff1673ffffffffffffffffffffffffffffffffffffffff163373ffffffffffffffffffffffffffffffffffffffff1614610629576040517f08c379a000000000000000000000000000000000000000000000000000000000815260040161062090610fc1565b60405180910390fd5b806000908051906020019061063f92919061080c565b5050565b6000600354905090565b6000600260009054906101000a900460ff16905090565b6060600060068054905067ffffffffffffffff811115610687576106866108de565b5b6040519080825280602002602001820160405280156106ba57816020015b60608152602001906001900390816106a55790505b50905060005b6006805490508110156108045760056000600683815481106106e5576106e4610fe1565b5b9060005260206000200160009054906101000a900473ffffffffffffffffffffffffffffffffffffffff1673ffffffffffffffffffffffffffffffffffffffff1673ffffffffffffffffffffffffffffffffffffffff168152602001908152602001600020805461075590610e1e565b80601f016020809104026020016040519081016040528092919081815260200182805461078190610e1e565b80156107ce5780601f106107a3576101008083540402835291602001916107ce565b820191906000526020600020905b8154815290600101906020018083116107b157829003601f168201915b50505050508282815181106107e6576107e5610fe1565b5b602002602001018190525080806107fc90611010565b9150506106c0565b508091505090565b82805461081890610e1e565b90600052602060002090601f01602090048101928261083a5760008555610881565b82601f1061085357805160ff1916838001178555610881565b82800160010185558215610881579182015b82811115610880578251825591602001919060010190610865565b5b50905061088e9190610892565b5090565b5b808211156108ab576000816000905550600101610893565b5090565b6000604051905090565b600080fd5b600080fd5b600080fd5b600080fd5b6000601f19601f8301169050919050565b7f4e487b7100000000000000000000000000000000000000000000000000000000600052604160045260246000fd5b610916826108cd565b810181811067ffffffffffffffff82111715610935576109346108de565b5b80604052505050565b60006109486108af565b9050610954828261090d565b919050565b600067ffffffffffffffff821115610974576109736108de565b5b61097d826108cd565b9050602081019050919050565b82818337600083830152505050565b60006109ac6109a784610959565b61093e565b9050828152602081018484840111156109c8576109c76108c8565b5b6109d384828561098a565b509392505050565b600082601f8301126109f0576109ef6108c3565b5b8135610a00848260208601610999565b91505092915050565b600060208284031215610a1f57610a1e6108b9565b5b600082013567ffffffffffffffff811115610a3d57610a3c6108be565b5b610a49848285016109db565b91505092915050565b600081519050919050565b600082825260208201905092915050565b60005b83811015610a8c578082015181840152602081019050610a71565b83811115610a9b576000848401525b50505050565b6000610aac82610a52565b610ab68185610a5d565b9350610ac6818560208601610a6e565b610acf816108cd565b840191505092915050565b60006020820190508181036000830152610af48184610aa1565b905092915050565b600073ffffffffffffffffffffffffffffffffffffffff82169050919050565b6000610b2782610afc565b9050919050565b610b3781610b1c565b8114610b4257600080fd5b50565b600081359050610b5481610b2e565b92915050565b600060208284031215610b7057610b6f6108b9565b5b6000610b7e84828501610b45565b91505092915050565b6000819050919050565b610b9a81610b87565b82525050565b6000602082019050610bb56000830184610b91565b92915050565b610bc481610b87565b8114610bcf57600080fd5b50565b600081359050610be181610bbb565b92915050565b600060208284031215610bfd57610bfc6108b9565b5b6000610c0b84828501610bd2565b91505092915050565b60008060408385031215610c2b57610c2a6108b9565b5b6000610c3985828601610b45565b9250506020610c4a85828601610bd2565b9150509250929050565b60008115159050919050565b610c6981610c54565b82525050565b6000602082019050610c846000830184610c60565b92915050565b600060ff82169050919050565b610ca081610c8a565b82525050565b6000602082019050610cbb6000830184610c97565b92915050565b600081519050919050565b600082825260208201905092915050565b6000819050602082019050919050565b600082825260208201905092915050565b6000610d0982610a52565b610d138185610ced565b9350610d23818560208601610a6e565b610d2c816108cd565b840191505092915050565b6000610d438383610cfe565b905092915050565b6000602082019050919050565b6000610d6382610cc1565b610d6d8185610ccc565b935083602082028501610d7f85610cdd565b8060005b85811015610dbb5784840389528151610d9c8582610d37565b9450610da783610d4b565b925060208a01995050600181019050610d83565b50829750879550505050505092915050565b60006020820190508181036000830152610de78184610d58565b905092915050565b7f4e487b7100000000000000000000000000000000000000000000000000000000600052602260045260246000fd5b60006002820490506001821680610e3657607f821691505b60208210811415610e4a57610e49610def565b5b50919050565b7f7472616e7366657220616d6f756e7420657863656564732062616c616e636500600082015250565b6000610e86601f83610a5d565b9150610e9182610e50565b602082019050919050565b60006020820190508181036000830152610eb581610e79565b9050919050565b7f4e487b7100000000000000000000000000000000000000000000000000000000600052601160045260246000fd5b6000610ef682610b87565b9150610f0183610b87565b925082821015610f1457610f13610ebc565b5b828203905092915050565b6000610f2a82610b87565b9150610f3583610b87565b9250827fffffffffffffffffffffffffffffffffffffffffffffffffffffffffffffffff03821115610f6a57610f69610ebc565b5b828201905092915050565b7f4e4f5420544845204f574e455200000000000000000000000000000000000000600082015250565b6000610fab600d83610a5d565b9150610fb682610f75565b602082019050919050565b60006020820190508181036000830152610fda81610f9e565b9050919050565b7f4e487b7100000000000000000000000000000000000000000000000000000000600052603260045260246000fd5b600061101b82610b87565b91507fffffffffffffffffffffffffffffffffffffffffffffffffffffffffffffffff82141561104e5761104d610ebc565b5b60018201905091905056fea2646970667358221220c0931936e1cb1d078c6c88f635618aed3001fb26c3b47a11489612040607775b64736f6c63430008090033",
  "linkReferences": {},
  "deployedLinkReferences": {}
}